{
  "contractName": "SupplyChain",
  "abi": [
    {
      "anonymous": false,
      "inputs": [
        {
          "indexed": false,
          "internalType": "uint256",
          "name": "index",
          "type": "uint256"
        },
        {
          "indexed": true,
          "internalType": "address",
          "name": "supplier",
          "type": "address"
        },
        {
          "indexed": true,
          "internalType": "address",
          "name": "deliveryCompany",
          "type": "address"
        },
        {
          "indexed": true,
          "internalType": "address",
          "name": "customer",
          "type": "address"
        }
      ],
      "name": "OrderAccepted",
      "type": "event"
    },
    {
      "anonymous": false,
      "inputs": [
        {
          "indexed": false,
          "internalType": "uint256",
          "name": "index",
          "type": "uint256"
        },
        {
          "indexed": true,
          "internalType": "address",
          "name": "supplier",
          "type": "address"
        },
        {
          "indexed": true,
          "internalType": "address",
          "name": "deliveryCompany",
          "type": "address"
        },
        {
          "indexed": true,
          "internalType": "address",
          "name": "customer",
          "type": "address"
        }
      ],
      "name": "OrderCreated",
      "type": "event"
    },
    {
      "anonymous": false,
      "inputs": [
        {
          "indexed": false,
          "internalType": "uint256",
          "name": "index",
          "type": "uint256"
        },
        {
          "indexed": true,
          "internalType": "address",
          "name": "supplier",
          "type": "address"
        },
        {
          "indexed": true,
          "internalType": "address",
          "name": "deliveryCompany",
          "type": "address"
        },
        {
          "indexed": true,
          "internalType": "address",
          "name": "customer",
          "type": "address"
        }
      ],
      "name": "OrderDeclined",
      "type": "event"
    },
    {
      "anonymous": false,
      "inputs": [
        {
          "indexed": false,
          "internalType": "uint256",
          "name": "index",
          "type": "uint256"
        },
        {
          "indexed": true,
          "internalType": "address",
          "name": "supplier",
          "type": "address"
        },
        {
          "indexed": true,
          "internalType": "address",
          "name": "deliveryCompany",
          "type": "address"
        },
        {
          "indexed": true,
          "internalType": "address",
          "name": "customer",
          "type": "address"
        }
      ],
      "name": "OrderDelivered",
      "type": "event"
    },
    {
      "anonymous": false,
      "inputs": [
        {
          "indexed": false,
          "internalType": "uint256",
          "name": "index",
          "type": "uint256"
        },
        {
          "indexed": true,
          "internalType": "address",
          "name": "supplier",
          "type": "address"
        },
        {
          "indexed": true,
          "internalType": "address",
          "name": "deliveryCompany",
          "type": "address"
        },
        {
          "indexed": true,
          "internalType": "address",
          "name": "customer",
          "type": "address"
        }
      ],
      "name": "OrderDelivering",
      "type": "event"
    },
    {
      "constant": true,
      "inputs": [
        {
          "internalType": "uint256",
          "name": "_index",
          "type": "uint256"
        }
      ],
      "name": "getOrder",
      "outputs": [
        {
          "internalType": "string",
          "name": "",
          "type": "string"
        },
        {
          "internalType": "string",
          "name": "",
          "type": "string"
        },
        {
          "internalType": "address",
          "name": "",
          "type": "address"
        },
        {
          "internalType": "address",
          "name": "",
          "type": "address"
        },
        {
          "internalType": "address",
          "name": "",
          "type": "address"
        },
        {
          "internalType": "enum SupplyChain.Status",
          "name": "",
          "type": "uint8"
        }
      ],
      "payable": false,
      "stateMutability": "view",
      "type": "function"
    },
    {
      "constant": false,
      "inputs": [
        {
          "internalType": "string",
          "name": "_title",
          "type": "string"
        },
        {
          "internalType": "string",
          "name": "_description",
          "type": "string"
        },
        {
          "internalType": "address",
          "name": "_deliveryCompany",
          "type": "address"
        },
        {
          "internalType": "address",
          "name": "_customer",
          "type": "address"
        }
      ],
      "name": "createOrder",
      "outputs": [],
      "payable": false,
      "stateMutability": "nonpayable",
      "type": "function"
    },
    {
      "constant": false,
      "inputs": [
        {
          "internalType": "uint256",
          "name": "_index",
          "type": "uint256"
        }
      ],
      "name": "startDeliveringOrder",
      "outputs": [],
      "payable": false,
      "stateMutability": "nonpayable",
      "type": "function"
    },
    {
      "constant": false,
      "inputs": [
        {
          "internalType": "uint256",
          "name": "_index",
          "type": "uint256"
        }
      ],
      "name": "stopDeliveringOrder",
      "outputs": [],
      "payable": false,
      "stateMutability": "nonpayable",
      "type": "function"
    },
    {
      "constant": false,
      "inputs": [
        {
          "internalType": "uint256",
          "name": "_index",
          "type": "uint256"
        }
      ],
      "name": "acceptOrder",
      "outputs": [],
      "payable": false,
      "stateMutability": "nonpayable",
      "type": "function"
    },
    {
      "constant": false,
      "inputs": [
        {
          "internalType": "uint256",
          "name": "_index",
          "type": "uint256"
        }
      ],
      "name": "declineOrder",
      "outputs": [],
      "payable": false,
      "stateMutability": "nonpayable",
      "type": "function"
    }
  ],
  "bytecode": "0x608060405234801561001057600080fd5b50611344806100206000396000f3fe608060405234801561001057600080fd5b50600436106100625760003560e01c80636c4840421461006757806384e9d53814610095578063aa6e2a72146100c3578063ccbdb85c14610255578063d09ef24114610283578063ef18e9ed14610444575b600080fd5b6100936004803603602081101561007d57600080fd5b8101908080359060200190929190505050610472565b005b6100c1600480360360208110156100ab57600080fd5b810190808035906020019092919050505061066a565b005b610253600480360360808110156100d957600080fd5b81019080803590602001906401000000008111156100f657600080fd5b82018360208201111561010857600080fd5b8035906020019184600183028401116401000000008311171561012a57600080fd5b91908080601f016020809104026020016040519081016040528093929190818152602001838380828437600081840152601f19601f8201169050808301925050505050505091929192908035906020019064010000000081111561018d57600080fd5b82018360208201111561019f57600080fd5b803590602001918460018302840111640100000000831117156101c157600080fd5b91908080601f016020809104026020016040519081016040528093929190818152602001838380828437600081840152601f19601f820116905080830192505050505050509192919290803573ffffffffffffffffffffffffffffffffffffffff169060200190929190803573ffffffffffffffffffffffffffffffffffffffff169060200190929190505050610862565b005b6102816004803603602081101561026b57600080fd5b8101908080359060200190929190505050610add565b005b6102af6004803603602081101561029957600080fd5b8101908080359060200190929190505050610cef565b6040518080602001806020018773ffffffffffffffffffffffffffffffffffffffff1673ffffffffffffffffffffffffffffffffffffffff1681526020018673ffffffffffffffffffffffffffffffffffffffff1673ffffffffffffffffffffffffffffffffffffffff1681526020018573ffffffffffffffffffffffffffffffffffffffff1673ffffffffffffffffffffffffffffffffffffffff16815260200184600481111561035d57fe5b60ff168152602001838103835289818151815260200191508051906020019080838360005b8381101561039d578082015181840152602081019050610382565b50505050905090810190601f1680156103ca5780820380516001836020036101000a031916815260200191505b50838103825288818151815260200191508051906020019080838360005b838110156104035780820151818401526020810190506103e8565b50505050905090810190601f1680156104305780820380516001836020036101000a031916815260200191505b509850505050505050505060405180910390f35b6104706004803603602081101561045a57600080fd5b8101908080359060200190929190505050610fd5565b005b803373ffffffffffffffffffffffffffffffffffffffff166000828154811061049757fe5b906000526020600020906005020160030160009054906101000a900473ffffffffffffffffffffffffffffffffffffffff1673ffffffffffffffffffffffffffffffffffffffff16146104e957600080fd5b81600160048111156104f757fe5b6000828154811061050457fe5b906000526020600020906005020160040160149054906101000a900460ff16600481111561052e57fe5b1461053857600080fd5b600080848154811061054657fe5b906000526020600020906005020190508060040160009054906101000a900473ffffffffffffffffffffffffffffffffffffffff1673ffffffffffffffffffffffffffffffffffffffff168160030160009054906101000a900473ffffffffffffffffffffffffffffffffffffffff1673ffffffffffffffffffffffffffffffffffffffff168260020160009054906101000a900473ffffffffffffffffffffffffffffffffffffffff1673ffffffffffffffffffffffffffffffffffffffff167feba876045358af3706e7f69426cd070cb8dccb28004307903990b6f9751bfba7876040518082815260200191505060405180910390a460028160040160146101000a81548160ff0219169083600481111561065f57fe5b021790555050505050565b803373ffffffffffffffffffffffffffffffffffffffff166000828154811061068f57fe5b906000526020600020906005020160030160009054906101000a900473ffffffffffffffffffffffffffffffffffffffff1673ffffffffffffffffffffffffffffffffffffffff16146106e157600080fd5b81600060048111156106ef57fe5b600082815481106106fc57fe5b906000526020600020906005020160040160149054906101000a900460ff16600481111561072657fe5b1461073057600080fd5b600080848154811061073e57fe5b906000526020600020906005020190508060040160009054906101000a900473ffffffffffffffffffffffffffffffffffffffff1673ffffffffffffffffffffffffffffffffffffffff168160030160009054906101000a900473ffffffffffffffffffffffffffffffffffffffff1673ffffffffffffffffffffffffffffffffffffffff168260020160009054906101000a900473ffffffffffffffffffffffffffffffffffffffff1673ffffffffffffffffffffffffffffffffffffffff167f85748ddff6a058572aa7b2839db80b1cd4eb7a49b473ebe2e8183d84bdb237c1876040518082815260200191505060405180910390a460018160040160146101000a81548160ff0219169083600481111561085757fe5b021790555050505050565b61086a6111e7565b6040518060c001604052808681526020018581526020013373ffffffffffffffffffffffffffffffffffffffff1681526020018473ffffffffffffffffffffffffffffffffffffffff1681526020018373ffffffffffffffffffffffffffffffffffffffff168152602001600060048111156108e257fe5b81525090506000808054905090508273ffffffffffffffffffffffffffffffffffffffff168473ffffffffffffffffffffffffffffffffffffffff163373ffffffffffffffffffffffffffffffffffffffff167f2c3ffcf5ffd176911ddab8c33354b6b2e2b76c269b75c59f7e307470f7ead6d1846040518082815260200191505060405180910390a46000829080600181540180825580915050906001820390600052602060002090600502016000909192909190915060008201518160000190805190602001906109b692919061126a565b5060208201518160010190805190602001906109d392919061126a565b5060408201518160020160006101000a81548173ffffffffffffffffffffffffffffffffffffffff021916908373ffffffffffffffffffffffffffffffffffffffff16021790555060608201518160030160006101000a81548173ffffffffffffffffffffffffffffffffffffffff021916908373ffffffffffffffffffffffffffffffffffffffff16021790555060808201518160040160006101000a81548173ffffffffffffffffffffffffffffffffffffffff021916908373ffffffffffffffffffffffffffffffffffffffff16021790555060a08201518160040160146101000a81548160ff02191690836004811115610acd57fe5b0217905550505050505050505050565b803373ffffffffffffffffffffffffffffffffffffffff1660008281548110610b0257fe5b906000526020600020906005020160040160009054906101000a900473ffffffffffffffffffffffffffffffffffffffff1673ffffffffffffffffffffffffffffffffffffffff1614610b5457600080fd5b8160026004811115610b6257fe5b60008281548110610b6f57fe5b906000526020600020906005020160040160149054906101000a900460ff166004811115610b9957fe5b14610ba357600080fd5b6000808481548110610bb157fe5b906000526020600020906005020190508060040160009054906101000a900473ffffffffffffffffffffffffffffffffffffffff1673ffffffffffffffffffffffffffffffffffffffff168160030160009054906101000a900473ffffffffffffffffffffffffffffffffffffffff1673ffffffffffffffffffffffffffffffffffffffff168260020160009054906101000a900473ffffffffffffffffffffffffffffffffffffffff1673ffffffffffffffffffffffffffffffffffffffff167fff1e880224f49554bf2774d72666eda3d6156abdb8614849a754bc54ef0f877e876040518082815260200191505060405180910390a4600460008581548110610cb857fe5b906000526020600020906005020160040160146101000a81548160ff02191690836004811115610ce457fe5b021790555050505050565b606080600080600080610d006111e7565b60008881548110610d0d57fe5b90600052602060002090600502016040518060c0016040529081600082018054600181600116156101000203166002900480601f016020809104026020016040519081016040528092919081815260200182805460018160011615610100020316600290048015610dbf5780601f10610d9457610100808354040283529160200191610dbf565b820191906000526020600020905b815481529060010190602001808311610da257829003601f168201915b50505050508152602001600182018054600181600116156101000203166002900480601f016020809104026020016040519081016040528092919081815260200182805460018160011615610100020316600290048015610e615780601f10610e3657610100808354040283529160200191610e61565b820191906000526020600020905b815481529060010190602001808311610e4457829003601f168201915b505050505081526020016002820160009054906101000a900473ffffffffffffffffffffffffffffffffffffffff1673ffffffffffffffffffffffffffffffffffffffff1673ffffffffffffffffffffffffffffffffffffffff1681526020016003820160009054906101000a900473ffffffffffffffffffffffffffffffffffffffff1673ffffffffffffffffffffffffffffffffffffffff1673ffffffffffffffffffffffffffffffffffffffff1681526020016004820160009054906101000a900473ffffffffffffffffffffffffffffffffffffffff1673ffffffffffffffffffffffffffffffffffffffff1673ffffffffffffffffffffffffffffffffffffffff1681526020016004820160149054906101000a900460ff166004811115610f8a57fe5b6004811115610f9557fe5b815250509050806000015181602001518260400151836060015184608001518560a001518595508494509650965096509650965096505091939550919395565b803373ffffffffffffffffffffffffffffffffffffffff1660008281548110610ffa57fe5b906000526020600020906005020160040160009054906101000a900473ffffffffffffffffffffffffffffffffffffffff1673ffffffffffffffffffffffffffffffffffffffff161461104c57600080fd5b816002600481111561105a57fe5b6000828154811061106757fe5b906000526020600020906005020160040160149054906101000a900460ff16600481111561109157fe5b1461109b57600080fd5b60008084815481106110a957fe5b906000526020600020906005020190508060040160009054906101000a900473ffffffffffffffffffffffffffffffffffffffff1673ffffffffffffffffffffffffffffffffffffffff168160030160009054906101000a900473ffffffffffffffffffffffffffffffffffffffff1673ffffffffffffffffffffffffffffffffffffffff168260020160009054906101000a900473ffffffffffffffffffffffffffffffffffffffff1673ffffffffffffffffffffffffffffffffffffffff167fcdc90f4dcfa53a56d5c85de16bd6232d92626bb006104b87ab11d74dd62b8dbb876040518082815260200191505060405180910390a46003600085815481106111b057fe5b906000526020600020906005020160040160146101000a81548160ff021916908360048111156111dc57fe5b021790555050505050565b6040518060c001604052806060815260200160608152602001600073ffffffffffffffffffffffffffffffffffffffff168152602001600073ffffffffffffffffffffffffffffffffffffffff168152602001600073ffffffffffffffffffffffffffffffffffffffff1681526020016000600481111561126457fe5b81525090565b828054600181600116156101000203166002900490600052602060002090601f016020900481019282601f106112ab57805160ff19168380011785556112d9565b828001600101855582156112d9579182015b828111156112d85782518255916020019190600101906112bd565b5b5090506112e691906112ea565b5090565b61130c91905b808211156113085760008160009055506001016112f0565b5090565b9056fea265627a7a723158205991df461091d3e7472c8573a1dcbe5312cf0eba036d8da9b271099980b5ac7e64736f6c63430005100032",
  "source": "pragma solidity >=0.4.22 <0.8.0;\r\n//pragma solidity ^0.4.25;\r\n\r\ncontract SupplyChain {\r\n    \r\n    enum Status { Created, Delivering, Delivered, Accepted, Declined }\r\n    \r\n    Order[] orders;\r\n    \r\n    struct Order {\r\n        string title;\r\n        string description;\r\n        address supplier;\r\n        address deliveryCompany;\r\n        address customer;\r\n        Status status;\r\n    }\r\n    \r\n    event OrderCreated(\r\n        uint256 index,\r\n        address indexed supplier,\r\n        address indexed deliveryCompany,\r\n        address indexed customer\r\n    );\r\n    \r\n    event OrderDelivering(\r\n        uint256 index,\r\n        address indexed supplier,\r\n        address indexed deliveryCompany,\r\n        address indexed customer\r\n    );\r\n    \r\n    event OrderDelivered(\r\n        uint256 index,\r\n        address indexed supplier,\r\n        address indexed deliveryCompany,\r\n        address indexed customer\r\n    );\r\n    \r\n    event OrderAccepted(\r\n        uint256 index,\r\n        address indexed supplier,\r\n        address indexed deliveryCompany,\r\n        address indexed customer\r\n    );\r\n    \r\n    event OrderDeclined(\r\n        uint256 index,\r\n        address indexed supplier,\r\n        address indexed deliveryCompany,\r\n        address indexed customer\r\n    );\r\n    \r\n    modifier onlyOrderDeliveryCompany(uint256 _index) {\r\n        require(orders[_index].deliveryCompany == msg.sender);\r\n        _;\r\n    }\r\n    \r\n    modifier onlyCustomer(uint256 _index) {\r\n        require(orders[_index].customer == msg.sender);\r\n        _;\r\n    }\r\n    \r\n    modifier orderCreated(uint256 _index) {\r\n        require(orders[_index].status == Status.Created);\r\n        _;\r\n    }\r\n    \r\n    modifier orderDelivering(uint256 _index) {\r\n        require(orders[_index].status == Status.Delivering);\r\n        _;\r\n    }\r\n    \r\n    modifier orderDelivered(uint256 _index) {\r\n        require(orders[_index].status == Status.Delivered);\r\n        _;\r\n    }\r\n    \r\n    function getOrder(\r\n        uint256 _index    \r\n    ) public view returns (string memory, string memory, address, address, address, Status) {\r\n        Order memory order = orders[_index];\r\n        return (\r\n            order.title,\r\n            order.description,\r\n            order.supplier,\r\n            order.deliveryCompany,\r\n            order.customer,\r\n            order.status\r\n        );\r\n    }\r\n    \r\n    function createOrder(\r\n        string memory _title,\r\n        string memory _description,\r\n        address _deliveryCompany,\r\n        address _customer\r\n    ) public {\r\n        Order memory order = Order({\r\n           title: _title,\r\n           description: _description,\r\n           supplier: msg.sender,\r\n           deliveryCompany: _deliveryCompany,\r\n           customer: _customer,\r\n           status: Status.Created\r\n        });\r\n        uint256 index = orders.length; \r\n        emit OrderCreated(index, msg.sender, _deliveryCompany, _customer);\r\n        orders.push(order);\r\n    }\r\n    \r\n    function startDeliveringOrder(\r\n        uint256 _index  \r\n    ) public onlyOrderDeliveryCompany(_index) orderCreated(_index) {\r\n        Order storage order = orders[_index];\r\n        emit OrderDelivering(_index, order.supplier, order.deliveryCompany, order.customer);\r\n        order.status = Status.Delivering;\r\n    }\r\n    \r\n    function stopDeliveringOrder(\r\n        uint256 _index    \r\n    ) public onlyOrderDeliveryCompany(_index) orderDelivering(_index) {\r\n        Order storage order = orders[_index];\r\n        emit OrderDelivered(_index, order.supplier, order.deliveryCompany, order.customer);\r\n        order.status = Status.Delivered;\r\n    }\r\n    \r\n    function acceptOrder(\r\n        uint256 _index\r\n    ) public onlyCustomer(_index) orderDelivered(_index) {\r\n        Order storage order = orders[_index];\r\n        emit OrderAccepted(_index, order.supplier, order.deliveryCompany, order.customer);\r\n        orders[_index].status = Status.Accepted;\r\n    }\r\n    \r\n    function declineOrder(\r\n        uint256 _index    \r\n    ) public onlyCustomer(_index) orderDelivered(_index) {\r\n        Order storage order = orders[_index];\r\n        emit OrderDeclined(_index, order.supplier, order.deliveryCompany, order.customer);\r\n        orders[_index].status = Status.Declined;\r\n    }\r\n    \r\n}\r\n",
  "sourcePath": "C:/Users/webra/OneDrive/Desktop/supply-chain/contracts/SupplyChain.sol",
  "compiler": {
    "name": "solc",
    "version": "0.5.16+commit.9c3226ce.Emscripten.clang"
  },
  "schemaVersion": "3.2.3",
  "updatedAt": "2020-08-16T17:20:52.209Z",
  "networkType": "ethereum",
  "devdoc": {
    "methods": {}
  },
  "userdoc": {
    "methods": {}
  }
}